:10000000403D00200141000025A40000ED4000001B
:10001000ED400000ED400000ED4000000000000059
:100020000000000000000000000000006942000025
:10003000ED4000000000000009420000ED4000001B
:10004000FD430000FD430000FD430000FD430000B0
:10005000FD430000FD430000FD430000FD430000A0
:10006000FD430000FD430000FD430000FD43000090
:10007000FD430000FD430000FD430000FD43000080
:10008000FD430000FD430000FD430000FD43000070
:10009000FD430000FD430000FD430000FD43000060
:1000A000FD430000FD430000FD430000FD43000050
:1000B000FD430000FD430000FD430000FD43000040
:1000C000FD430000FD430000FD430000FD43000030
:1000D000FD430000FD430000FD430000FD43000020
:1000E000FD430000FD430000FD430000FD43000010
:1000F000FD430000FD430000FD430000FD43000000
:1001000053B94AB9002908BF00281CBF4FF0FF317E
:100110004FF0FF3000F00CB8ADF1080C6DE904CEE3
:1001200000F022F8DDF804E0DDE9022304B07047B6
:10013000704700BF10F8012B11F8013B012A28BFBE
:100140009A42F7D0D01A7047034611F8012B03F8F2
:10015000012B002AF9D17047034613F8012B002A1E
:10016000FBD1181A013870472DE9F04786468C46B6
:100170000846089E154674461946002B40F0C2807A
:100180008542B2FA82F245D94AB1C2F1200300FA9F
:1001900002FC2EFA03F3954043EA0C0C94404FEA1C
:1001A000154EA8B2BCFBFEF8230C0EFB18CC08FBC6
:1001B00000F943EA0C43994528D9EB1808F1FF37B9
:1001C00004D2994502D9A8F102072B44A3EB0903F5
:1001D000A4B2B3FBFEFC0EFB1C330CFB00F044EAA4
:1001E0000344A04214D92C190CF1FF3304D2A042CD
:1001F00002D9ACF102032C44241A43EA07401EB191
:10020000D440002334607360BDE8F0874746DDE7E3
:100210006346F1E792BB431B01214FEA154EAFB293
:10022000B3FBFEFC200C0EFB1C330CFB07F840EA72
:100230000343984562D9EB180CF1FF3004D298457E
:1002400002D9ACF102002B44A3EB0803A4B2B3FB28
:10025000FEFC0EFB1C330CFB07F744EA0344A742E9
:100260004ED92C190CF1FF3304D2A74202D9ACF1BC
:1002700002032C44E41B43EA0040C0E7C2F1200320
:1002800020FA03F1954090402EFA03F303434FEA1E
:10029000154EAFB2B1FBFEFC0EFB1C10190C0CFB93
:1002A00007F841EA0041884504FA02F422D96918A6
:1002B0000CF1FF3004D2884502D9ACF10200294488
:1002C000A1EB08019BB2B1FBFEFC0EFB1C110CFB69
:1002D00007F743EA01439F420ED9EB180CF1FF31B7
:1002E00004D29F4202D9ACF102012B44DB1B41EA4C
:1002F000004192E76046E3E76146F7E76046A3E71F
:100300006346B7E7834206D916B9002108467BE762
:10031000C6E900E0F9E7B3FA83F78FB9834201D366
:10032000724508D8BEEB020460EB030301209C4633
:100330001EB9002168E73846FAE7C6E9004CF8E73D
:10034000C7F1200CBB4022FA0CF41C432EFA0CF12E
:1003500020FA0CF3B84001434FEA14490EFA07F5AE
:10036000B3FBF9F81FFA84FE09FB18300B0C08FBED
:100370000EFA43EA00439A4502FA07F240D9E3181D
:1003800008F1FF3004D29A4502D9A8F102002344B3
:10039000A3EB0A0389B2B3FBF9F809FB183308FB96
:1003A0000EFE41EA03418E452CD9611808F1FF3356
:1003B00004D28E4502D9A8F10203214443EA004049
:1003C000A0FB0298A1EB0E014145CE46434602D365
:1003D00006D14D4504D2B9EB020E68EB0403013897
:1003E000002EA6D0B5EB0E0261EB030101FA0CFC66
:1003F00022FA07F34CEA0303F940C6E9003198E713
:100400004046C5E74346D9E72DE9F043CFB06E46F5
:1004100002AF8AB0044600F1180802AA9C4BC2F849
:100420001C80C2E905309B4B13629B4B42F8103F86
:100430009A4800234FF4235102F0B4FC9849B54682
:100440002046FFF777FE0546B0B188B002AA954B6B
:10045000C2E905344FF400739383934B42F8103F85
:100460008E4800234FF4E45102F09CFCB54607F59A
:100470009A77BD46BDE8F083A022414607F18C0083
:100480000BF0C5F987F82C5107F18C031A78202A54
:100490001D461E4603F10103F8D0092AF6D028466E
:1004A000FFF75AFE2844B04201D033789BB97F4908
:1004B0002846FFF73FFE064680BB01F0EBF8012817
:1004C00011D102217A4A754809F0A3FD79492046E5
:1004D00000F0BAFCCBE7A3F16102192A9CBF203BD4
:1004E00033700136DFE76D4688B002AA724BC2E96D
:1004F00005344FF4007393836B4B42F8103F674809
:1005000033464FF4E65102F04DFC6C49AD462046AF
:1005100000F09AFC204601F06BF8A8E768492846ED
:10052000FFF708FE064650BB01F0BAF807F10C05CC
:10053000016882684FF47A73B2FBF3F20192426869
:10054000B2FBF3F228460092B1FBF3F35D4A80213F
:1005500008F014F9E84688B002AA5B4BC2E90535F9
:100560004FF400739383504B42F8103F4FF4E65121
:100570004A48334602F016FC2946C546A7E75349C8
:10058000042228460BF031F9064600286AD107F10B
:1005900004084F49B860C8F8000007F10803424654
:1005A000284608F015F90228014614D0E84688B01C
:1005B00002AA484BC2E905354FF4007393833A4BC6
:1005C00042F8103F4FF4E4513448334602F0EAFB5E
:1005D0004149C5467BE7BB685A1EB2F5967F05D3F5
:1005E0003E4A2E4809F01EFD3D4970E71946404637
:1005F00001F05AF80546F0B9BB68009307F10C0604
:100600004346384A4021304608F0B8F8E84688B0FA
:1006100002AA354BC2E905364FF400739383224B8F
:1006200042F8103F4FF4E6511C482B4602F0BAFB4B
:100630003146C5464BE7E9468AB002A92B4BC86153
:10064000C1E905380A464FF400730B84284B42F881
:10065000103F4FF411511148334602F0A3FB2549D6
:10066000CD4634E76E4688B002AA234BC2E9053571
:100670004FF4007393830C4B42F8103F4FF4E45156
:100680000648002302F08EFB1C49B5461FE700BF59
:1006900004C30000000201030400000268BE000061
:1006A0001FC300002CC300000300000132CF000074
:1006B00058C300008CC30000C0C30000E5C30000A5
:1006C0000DC4000014C4000046C400005BC4000058
:1006D00060C400006BC4000089C40000E3C40000D3
:1006E000FFC4000028C500008DCB000046C50000F7
:1006F000040000015FC5000086C50000A5C500001C
:1007000010B5324A3248032109F083FC00F070F83A
:10071000044630B12F4A03462D48012109F082FCDE
:1007200022E0012000F008F900F05EF900F02CFA58
:10073000044610B1284A0346EEE700F0FBFAA8B1E0
:10074000264A2348012109F064FC00F09DF940F697
:10075000B83008F0E2FC00F0EDFA044630B1204A6F
:100760001B48012109F055FC204610BD00F00EFB8E
:100770001C4800F045FD044610B11B4A0346CBE778
:1007800000F0FCFE2146204600F0DCF82146012066
:1007900000F0D8F82146022000F0D4F8204600F0FE
:1007A000CBF8124A0A48032109F033FC00F064FD3B
:1007B000012000F0C1F8642008F0AFFC002000F038
:1007C000BBF841F2243008F0A8FCEFE7E0C50000D8
:1007D00068BE000013C600002EC6000045C600001B
:1007E00073C6000009040000A1C60000B6C60000E0
:1007F00073B53C480AF081FD48B93B4A3B480121AA
:1008000008F0E2FC6FF01204204602B070BD3848D8
:100810004FF4B01108F091FC041E06DA354A234665
:100820003248012109F0FEFBEEE72E480AF065FD93
:1008300008B9314AE2E731484FF4B01108F07DFCC5
:10084000041E02DA2E4A2346EAE72E4E002556F809
:10085000043B18680AF051FD013530B92A4A234893
:100860002B46012109F0DEFBCCE756F8040C4FF4CF
:10087000B01108F062FC041E07DA244A1B480094F9
:100880002B46012109F0D8FBBEE7032DDFD120481C
:100890000AF033FD08B91F4AB0E71F491F4808F0A6
:1008A0004CFC041E02DA1E4A2346B9E71D4A0F48D3
:1008B000294608F089FC1C4A0C48294608F084FCAB
:1008C0001A4A0A48294608F07FFC194A074829466F
:1008D00008F07AFC174A0548294608F075FC002400
:1008E00092E700BF4CBB0000F8C6000048BE000005
:1008F0005CBF000013C7000031C7000054BF0000F8
:100900004FC7000028BF000070C700008DC700005F
:100910002CBB0000ADC700002000010034BF000068
:10092000C8C70000E6C70000FAC7000014C80000EE
:1009300039C8000058C800000146014808F030BC22
:100940005CBF0000B0B5022882B0044602AF0D467D
:100950000AD91A4A03460121194809F063FB6FF0CE
:1009600015042046BD46B0BD164B53F8200008F0D4
:1009700017FC631C041E06DA134A11480094012177
:1009800009F05AFBEDE7114A1148002D18BF104637
:100990006D468AB002AA0F49D061C2E9051340F240
:1009A000013313840C4B42F8103F054800234FF4E9
:1009B000135102F0F7F9AD46D3E700BF96C8000027
:1009C00048BE000028BF0000AFC800008FC800006C
:1009D00092C80000C4C800000400000101480121C1
:1009E00008F0CABB2CBB000038B50F4C0F4D104AA5
:1009F0002046032108F0E8FB0121284608F0D0FB3F
:100A00004FF4167008F0E2FB0021284608F0C8FBFE
:100A100041F2883008F0DAFB2046064ABDE838404B
:100A2000032108F0D1BB00BF48BE000054BF000046
:100A3000D0C80000FFC8000038B50F4C0F4D104A59
:100A40002046032108F0C0FB0121284608F0A8FB3E
:100A50004FF42F7008F0BAFB0021284608F0A0FBE5
:100A600040F6B83008F0B2FB2046064ABDE83840F0
:100A7000032108F0A9BB00BF48BE000054BF00001E
:100A80000CC900002DC9000008B5074A074803211A
:100A900008F09AFBFFF7D0FF4FF47A7008F096FB4E
:100AA000BDE80840FFF7A0BF3AC9000048BE0000FB
:100AB00038B5054D441E14F8011F01B938BD28682A
:100AC00083685B689847F6E7AC0E002008B50449D8
:100AD00004480AF0C9FE003818BF012008BD00BF55
:100AE000DCC90000AC17002073B504468368DB6BDB
:100AF0000BBB134D134EA368DB6A13B12046984716
:100B0000E0B1A3681B69002BF5D001220DF10701AC
:100B1000204698470128EED12A6840F2FE739A4297
:100B2000E9DC2B685A1C2A609DF80720F2542B68D8
:100B30000022F254DFE798470028DAD102B070BDF6
:100B4000A80E0020AC170020014B1868704700BFAA
:100B5000AC0E0020034B044800214FF400621960E2
:100B60000AF01ABEA80E0020AC17002038B50546C2
:100B700038B131B14C1E224602490AF048FE00232A
:100B80002B5538BDAC17002010B5114C1148206012
:100B90000AF0B3FB38B91048104A012109F039FABC
:100BA0006FF0120010BD2068836823B11B6C13B175
:100BB0000B4900229847206883681B6A03B1984755
:100BC0000548084A032109F024FA0020EAE700BF9B
:100BD000AC0E00208CBB000070BE000060C900009D
:100BE000E90A000071C900002DE9F04FC1B06C4660
:100BF00000AF88B015460646884699466A46434B7C
:100C0000C2E905304FF400739383414B42F8103F23
:100C10004048DFF804A1DFF804B100234FF4E651A7
:100C200002F0C0F83E4B3D48A54600244FF4006258
:100C300021461C600AF0B0FD3046FFF739FF394805
:100C4000FFF736FF4C450CDA0A2008F0CFFA0A34D9
:100C5000FFF73CFF28B9514658460AF005FE002828
:100C6000F0D02E49002311F8012B0AB1FE2B44D1FC
:100C70004FF0000BEA468AB007F803B06A462A4BE9
:100C8000D461C2E905374FF400731384274B42F84F
:100C9000103F20485B464FF4135102F083F8D546CD
:100CA000B8F1000F08D03DB1013D1C492A4640462D
:100CB0000AF0ADFD08F805B0FFF708FF4C45034604
:100CC00012DBA0B96C4688B06A461949C2E905161C
:100CD0004FF4007191830E4942F8101F0D484FF4F4
:100CE000E45102F05FF8A546FFF7F0FE50B1002096
:100CF00007F58277BD46BDE8F08F0D2A1CBFFA5478
:100D00000133B0E76FF00400F2E700BF8AC90000CA
:100D10000300000170BE000094C90000AC17002061
:100D2000A80E0020D6CA00009AC9000004000001E5
:100D3000B3C9000070B5114E90B0032541F288335D
:100D4000402269463046FFF74FFF044638B90C4A47
:100D50000C48032109F05DF9204610B070BD4FF436
:100D60007A7008F043FA013DE8D1074A05480121AD
:100D700009F04FF96FF07304EEE700BFCAC9000035
:100D8000CDC9000070BE0000DFC90000F0B5A1B001
:100D900041F28833802269462148224D224E234F5A
:100DA000FFF722FF41F28833802269462048FFF78F
:100DB0001BFF41F28833802269461E48FFF714FF6B
:100DC0001D4841F2883380226946FFF70DFF1E243B
:100DD000694641F2883380222846FFF705FF3146F5
:100DE00068460AF041FD20B9394668460AF03CFDE4
:100DF00038B11248124A032109F00BF9002021B042
:100E0000F0BD4FF47A7008F0F1F9013CE0D10B48E5
:100E10000C4A012109F0FDF86FF07300EFE700BF05
:100E200003CA000062CA00006BCA000076CA000054
:100E300008CA000025CA00003DCA000070BE0000BC
:100E400081CA000094CA00002DE9F0439DB000AFB4
:100E500005460E46FFF778FE8046002D00F0BB8069
:100E6000002E00F0B880002800F0B5806C468AB0F3
:100E70006A465A4BD661C2E90535594B1362594B44
:100E800042F8103F584800234FF4235101F08AFFE5
:100E9000564AA5462B463021384607F06FFC88B0ED
:100EA0006A46534BC2E905354FF400739383514BA7
:100EB00042F8103F4C4800234FF4E65101F072FF16
:100EC000A546FFF747FE3D4615F8014B002C3ED1E5
:100ED00007F130054022214628460AF05DFC4021FA
:100EE0002846FFF743FE3E2128460AF071FC98B3DE
:100EF000414A3D482346032109F094F8013E16F883
:100F0000014F002C3DD140461A2108F07FF94022C4
:100F1000214628460AF040FCDFF8E080DFF8E09048
:100F2000962640212846FFF721FE414628460AF032
:100F30009BFC044650B3334A2B48032108F069F95F
:100F40002948314A032108F064F9002015E02146C0
:100F5000404608F05BF9B7E740F2676000210AF00D
:100F600035FB323441F288339C42B8D1274A012103
:100F70001D4808F04EF96FF073007437BD46BDE8A8
:100F8000F0832146404608F041F9B8E74946284633
:100F90000AF06AFCA8B16E4688B06A461C4BC2E9EA
:100FA00005354FF400739383124B42F8103F0E48FF
:100FB00023464FF4E25101F0F5FE6FF00400B54610
:100FC000DBE740F6CD4000210AF000FB013EA8D14E
:100FD000104A0221CCE76FF01500CEE7B5CA000039
:100FE0000002010304000002A0BE0000CACA000003
:100FF000D9CA000003000001EDCA000032CB000096
:1010000094C9000039CB000062CB00000CCB00007B
:101010007BCB000090CB00002DE9F04FADF5097DB2
:10102000804600AF0D4651B30346484A202138465A
:1010300007F0A4FB41F288334FF4007207F120015E
:101040003846FFF7D1FD064668B1414A414843465C
:10105000022108F0E7FF6FF00106304607F5097737
:10106000BD46BDE8F08F3C4907F120000AF0FCFBCB
:10107000814638B9394A3748022108F0CAF86FF07A
:101080001506EAE73146C02228460AF085FBC5F876
:10109000BC80222148460AF09BFBE8B122210130A6
:1010A0000AF096FBC0B1222101300AF091FB834681
:1010B00090B100F1010A222150460AF089FB58B193
:1010C000A0EB0B04013C172CA8BF17242246514665
:1010D00028460AF09CFB2E5548460A210AF078FB68
:1010E00005F11809C0B143781D490D2B14BF00F15B
:1010F000010A00F1020A50460AF0A5FB08B3A0EB72
:101100000A04A02CA8BFA0242246514648462C44DD
:101110000AF07DFB002323766C468AB06A46114BA9
:10112000C2E90538104B5362104BC2E9075942F827
:10113000103F084800234FF4435101F033FEA54609
:101140008BE75046FFF708F80446DAE7CDCB0000FE
:10115000D8CB0000A0BE0000EBCB0000F2CB00001B
:10116000D6CA00000ECC00000103020405000002F4
:10117000B0B598B000AF0346144A04462021384663
:1011800007F0FCFA41F28833402207F1200138468B
:10119000FFF72AFD0E4A0F4B051E8AB018BF1346F3
:1011A0006A460D49D36140F2013313840B4BC2E907
:1011B000051442F8103F0A4800234FF4135101F080
:1011C000F1FD28466037BD46B0BD00BF30CC000001
:1011D00029CC0000DCC900003BCC00000400000169
:1011E000A0BE000000B591B04FF4FA53402269460A
:1011F0000248FFF7F9FC11B05DF804FB51CC000088
:1012000010B5154BA0B018608022144841F2883305
:101210006946FFF7E9FC044638B1114A012111483B
:1012200007F0F7FF204620B010BD41F2883380223E
:1012300069460D48FFF7D8FC0C4841F288338022FC
:101240006946FFF7D1FC044608B1094AE6E7FFF713
:10125000C9FF084A0321E2E7B00E00205DCC000080
:1012600067CC0000A0BE000079CC000087CC000055
:1012700099CC0000A9CC00002DE9F041264A27486E
:10128000ADF5986D032107F0C4FF254842F21073B5
:101290004FF4806230A9FFF7A7FC40B1214A022138
:1012A0001E4807F0B6FF0DF5986DBDE8F0811E49A8
:1012B00030A80AF0D9FA48BB1C4A0321F0E7A21D66
:1012C000104612F8013B202BFAD0303B092B15D8E1
:1012D0000AF06AFA0546032103463A46404608F0FA
:1012E000A1FE69462846FFF797FE20B9104B1B6800
:1012F0000BB1684698472846FFF73AFF601C314615
:101300000AF0B2FA04460028D9D1CCE7064E094FBC
:10131000DFF8088030A8F2E7BECC0000A0BE0000D5
:10132000D7CC0000ECCC000013CD00001ACD00009B
:10133000B00E00202FCD0000B0B5042982B00446C5
:1013400000AF1546184616D06D4688B06A462E4B3B
:101350002E48C2E905344FF4007393832C4B42F8B6
:10136000103F4FF4E45107F056FF6FF01500AD4603
:101370000837BD46B0BD0A46391DA847042814D019
:101380006D4688B06A46234B2048C2E905344FF4C5
:10139000007393831E4B42F8103F4FF4E25107F065
:1013A0003AFF6FF00400AD46E2E71B492046FEF726
:1013B000C1FE20B9194B7A681A600020D8E7184995
:1013C0002046FEF7B7FE18B9144B7A685A60F4E766
:1013D00014492046FEF7AEFE18B9104B7A689A60A1
:1013E000EBE76D4688B06A460F4B0848C2E9053402
:1013F0004FF400739383064B42F8103F4FF4E451CF
:1014000007F009FFAD46D8E757CD000090BE0000B9
:101410000300000180CD000058D00000D00400205F
:1014200062D000006CD000009ECD0000F8B5454CA5
:1014300000AF6E468AB04FF47A752368B3FBF5F0BF
:101440006A466368B3FBF5F1A368B3FBF5F3DFF815
:10145000F8C0C2E907130523C2E905C04FF42351C0
:1014600042F8103F394807F0D6FE0121B54600206A
:10147000FFF768FA2368B3FBF5F3354A33480321D5
:1014800008F0D0FD206807F0C9FE01210846FFF7EB
:1014900059FA6368B3FBF5F32E4A2C48032108F090
:1014A000C1FD606807F0BAFE00210846FFF74AFA5E
:1014B00000210120FFF746FAA368B3FBF5F3264AA3
:1014C0002248032108F0AEFD0025A368AB420AD8EC
:1014D0004FF47A720221B3FBF2F31C481F4A08F062
:1014E000A1FD1F490FE0FFF779FA012824D11D4A19
:1014F00016482B46032108F095FD03211A4A13488C
:1015000008F087FD19491A48FFF79EFC002108469C
:10151000FFF718FA00210120FFF714FA002102203A
:10152000FFF710FA134B00221A70134A07480321E1
:1015300008F06FFDBD46F8BD322007F06FFE323572
:10154000C3E700BFD0040020C0CD000090BE000063
:10155000E7CD000007CE000027CE0000B8CE000087
:10156000DFCE000053CE000075CE000092CE00000A
:10157000AC1F0020C41F00200ACF0000B0B500AF90
:1015800002F018F9031E07DA144A1548022108F080
:1015900049FD0020BD46B0BD124C134801F0CEFFFE
:1015A00023684FF47A72B3FBF2F06368B3FBF2F195
:1015B000A368B3FBF2F36C468AB06A460B4DC2E9EE
:1015C00007130523C2E905504FF4235142F8103F99
:1015D000034807F020FEA546DBE700BF38CF000038
:1015E00090BE0000D00400206BCF00006FCF000041
:1015F0002DE9F843DFF87C8098F80030012B00AF2C
:1016000001460AD11C4A1D48022108F002FD6FF074
:101610000F042046BD46BDE8F883194E1722304618
:101620000AF0F5F800251748F5754FF0010988F81C
:10163000009005F0FBFF041E08DA134A0F4823460A
:10164000494608F0EFFC88F80050E2E76C4688B0A5
:101650006A460E4B0948C2E905364FF4007393837E
:101660000B4B42F8103F4FF4E65107F0D4FDA5466E
:101670002C46CEE7C41F0020A6CF000090BE00007D
:10168000AC1F0020C0040020D7CF0000F1CF000025
:1016900003000001014B1878704700BFC41F0020F1
:1016A00000487047D00400202DE9F0414B1E86B061
:1016B000B3F5967F044600AF0E4619D36D468AB047
:1016C0006A463C4BD161C2E905304FF40073138484
:1016D000394B42F8103F4FF41151384807F09BFD49
:1016E000AD466FF0150528461837BD46BDE8F081B8
:1016F0004FF47A754D4332497D60FEF71BFD18BBF0
:10170000304B31491D6007F10800FEF71DFD07F160
:1017100008080422B918404601F0DEFE051E34DA3E
:101720006C468AB06A46294BD561C2E905384FF448
:1017300000731384204B42F8103F20484FF411519E
:1017400007F069FDA546CEE721492046FEF7F2FCE9
:1017500018B91C4B1F495D60D5E71F492046FEF7AD
:10176000E9FC18B9174B1D499D60CCE76D4688B060
:101770006A461B4BC2E905344FF400739383194B3F
:1017800042F8103F4FF4E251A7E7E8468AB06A46B4
:10179000154BD661C2E905344FF400731384064B30
:1017A00042F8103F05484FF4135107F034FDC54689
:1017B00099E700BF22D000000400000190BE0000A5
:1017C00051D00000D004002054D0000099D0000077
:1017D0005BD000005ED0000065D0000068D0000043
:1017E0006FD0000003000001B9D000002DE9F04FD8
:1017F00091B08407009302F004030293C2F3C20382
:1018000003F10103DDF86880039205460E46059357
:1018100040F0BA81041D30B1072909D86FF01B00D0
:1018200011B0BDE8F08F01F007063444C6F1080698
:10183000009B4FF00009591E4FF0040A4FF0FF3390
:101840000193CDF810904F46CB4653460DB1009A08
:1018500022600598002800F3E8809848009A8242A8
:1018600003D397488242C0F0E080039AA4EB050EB0
:1018700092074FEA9E0000F103810F2F00F2B18022
:10188000002D00F0058107F140020DEB020C019ADA
:101890000CF8200C0CF8102C049801300490E7E0B0
:1018A0007A285DD84B280ED8472859D829282DD812
:1018B000252852D054D820287AD02338D0F1000BD4
:1018C0004BEB000B74E04C382E2849D8DFE800F0D1
:1018D0007048484848484848484848484B4848485D
:1018E000484848484859484B4B595959704B6D48DE
:1018F0007048184B184848827F4B48484B487F0037
:1019000000204FF0000B4FF0040A38E02A38C0B234
:10191000012202FA00F010EA0E0F49D110F0625CC9
:101920002FD110EA020B43D06046013C5444B4FB73
:10193000FAF40AFB04F4002D61D0A3EB050CA444D7
:10194000B4453FF66BAF002868D1042B47D158F857
:10195000043B2360043404232AE0019A013A0192F3
:101960004FF0000B24E011F8010C6C2834D111F871
:10197000023C00206C2B8346C5D14FF0080A534629
:10198000D3E708F1070828F007080734F8E802ABA6
:1019900024F0070435B106982044B0423FF63EAF2C
:1019A000C4E900AB08344FF0000B4FF0080A53466F
:1019B00011F8010F002878D0BBF1000F7FF470AF51
:1019C0002528F5D1019B013301934FF0010B4FF016
:1019D000040AECE7584694E700208346A5E7082B65
:1019E00002D06FF015001BE708F1070828F0070880
:1019F000F8E80223C4E9002308340823D8E768B9CB
:101A0000042B02D108F10408A4E7082BE9D108F15E
:101A1000070828F0070808F10808EDE7059A013AD9
:101A2000059258F8042B009210E7039A900720D5EE
:101A3000A4EB050E4FEA9E004FF0010CBEF5007FAF
:101A4000CFD20F2FCDD8F5B107F140020DEB020E2A
:101A5000C0B2019A0EF8200C0EF8102CBCF1000F49
:101A60003FF41AAF60F07F000EF8200C09F1010975
:101A70000137C5F10802043406924FF6DA7E97E783
:101A80004FF0000CDAE7BCF1000F01D00136EFE7B0
:101A9000029802360028EBD10098CDE90631FEF716
:101AA0005BFBDDE906310644E2E7631BB3F5806FBB
:101AB00097D23DB9A6F10804E018B1E674BA000067
:101AC00080DD0000029A28609B082B709DF8103082
:101AD000C2B1EB7085F80290B9F1000F05D008A8EB
:101AE0000022C5F1010C97420ED1C5F101030DF1A1
:101AF00020084FF0000A01930DF1300B574512D129
:101B0000601B8DE66B70E5E710F8013B190608D500
:101B10000CEB040EB64503F07F033FF67FAE04F8EE
:101B2000013B0132DFE7B9F1000F03D098F9002043
:101B3000002A17DB029BD3B11AF80B2004F8012B03
:101B40000022019B18191044B0423FF667AE98F886
:101B5000000004F8010B00990392204609F0F4FDFF
:101B6000039A14440AF1010A08F10108C6E798F83B
:101B7000002055F822300093029B45F8223000984F
:101B8000FEF7EAFA421CDCE76FF00D0048E600BF02
:101B90002DE9F04F97B000AF90F802A0D7F880B0D1
:101BA0003B62CBF3C0030446FA62BB61894641B98C
:101BB000457800780AEB800020444D4517D8A0EB0B
:101BC0000409E378FB61BAF1000F02D01BF0010FAA
:101BD00016D1FB6953BBFB6A1BB13A6A49462046E2
:101BE00098474D4628465C37BD46BDE8F08F461CF9
:101BF0003046FEF7B1FA0130304409F10109DCE763
:101C0000237862687A62FA6A9900796104EB830149
:101C1000002A40F000814D460E4601EB0A094FF0C4
:101C200000084E454CD101EB0A0610E01BF0020FF4
:101C3000D1D023789A007A6162687A62FA6A04EBFA
:101C40008301002A77D14D4601EB0A0690461BF02E
:101C5000050F0CBF02230123FB62FB6906EB430A5D
:101C60000BF00203BB625645BCD016F8021B16F8F7
:101C7000013C54F82390994B994502D3984B9945D0
:101C800036D3BB69002B40D0786A07F074FB00287C
:101C90003BD0E9468AB06A46924B53617B6AC2E9FF
:101CA00006314FF4007313848F4B42F8103F8F4876
:101CB00000234FF4125101F075F8023DCD46D2E7F2
:101CC00016F8013BF96254F82300FEF745FAD7F8FD
:101CD0008430F96A01304BB1D7F8883098453EBF5F
:101CE000D7F8843023F8180008F10108054498E774
:101CF000BB6923B1786A07F03EFB0028C9D11BF00D
:101D0000010F05D1FB6AED1AADE7BB6A002BAAD023
:101D10004846FEF721FAD7F8843053B1D7F8883017
:101D200098453FBFD7F88420431C22F8183008F1AB
:101D30000108054497E7BAF1000F72D01BF00406C2
:101D400072D0D046002607F1480052463B61B96286
:101D500009F0FAFCB96A3B6901EB0A02BA62FA6956
:101D6000F9695200FA60BA6A02EB41023A610BF07B
:101D70000202BA603A69B96A8A4257D162787A62D5
:101D80001BF0020F32440CBF4FEA580100211BF038
:101D9000010FD2B240F09F801BF0040F14BF4046E9
:101DA0000020BB616270A070E1703A6A7969FB6AD9
:101DB00020469847051EFFF615AFBB6923707B6A66
:101DC0006370FB69E37041463A6AFB6A84F802A0DB
:101DD00007F148009847B0F10008C0F2BB807B696A
:101DE0003A6AA9EB0A01C91AFB68C91AD7E90A03BA
:101DF00098470028C0F2B080A84408EB00054FF0D7
:101E0000000B07F1380AB34572D300213A6AFB6A26
:101E100008469847E6E656464FF0000807F13800B6
:101E200093E75646D04697E7B04695E7BA6A12F868
:101E3000021BBA6212F8015C284A54F8250090424D
:101E400002D3274A90421ED3BA6932B1786A7B60C6
:101E500007F091FA7B6800288CD1BA6802BB08F1C0
:101E6000280207F1300C08F10100944407F15802F0
:101E700052FA80F008F102080CF8101C5FFA88F89A
:101E800000F8105C76E7BA693AB1786A7B6007F0CF
:101E900072FA7B6800287FF46DAF1BF0010F09D048
:101EA00006F1280207F13000711C161806F8205CB4
:101EB000CEB25FE71BF0040F3FF45CAF08F12802DD
:101EC00007F1300008F1010102EB000808F8105C8E
:101ED0005FFA81F84EE7002063E700BF74BA0000A4
:101EE00080DD0000DCD000000400000120BE000006
:101EF0001BF80A3087F8373054F82390D7F884302D
:101F00002BB3D7F888309B4521D2D7F8843033F8EB
:101F10001B803A6AFB6A012107F1370098470028C5
:101F20001ADB0544B8F1000F06D14846FEF714F954
:101F300000F101081FFA88F83A6AFB6A41464846F0
:101F40009847002808DB05440BF1010B5BE74FF0D5
:101F50000008DEE7454645E6054643E6014B1860C6
:101F6000704700BFDC04002080B505460E461746CA
:101F7000984605F0B1FE034609F072FDDFF81890AF
:101F8000044649F80030424630463946A84754F8DE
:101F9000090002F023F900BF080000002DE9F04716
:101FA000058B04462807904611D4022905F0070541
:101FB00040F0CC80204607F07CFC78B10138218BC2
:101FC000042811D8DFE800F0C2106D8595000129C2
:101FD0000CBF45F0100545F02005258388F31188D6
:101FE000BFF36F8FBDE8F08701F0070AAA4500F044
:101FF000A5800027B9463E46A368002B00F0BC80B0
:1020000041F00801218388F31188BFF36F8FA16825
:10201000002900F0BA800D68002900F0B680D1F8E0
:102020000480334652462046C047002D76D02B68A8
:1020300029461D46F0E701F007035A1F012A1BD865
:10204000002221F00701062B276889B2C4E900228B
:1020500009D13B4603E0628B013262831B68002B8F
:10206000F9D141F002012183204607F022FC00282B
:102070007AD041F0200176E0042B0AD121F007014B
:1020800089B22183204607F014FC10B141F02001F1
:102090002183218B01F0070AAA454FD00027B946BA
:1020A000AAE7236921F0070141F00601062DD3F8C4
:1020B000009021832DD1B9F1000F3FD041F00801EC
:1020C000218388F31188BFF36F8F3A492046C847B0
:1020D00029E021F00701236941F0040189B2042DB0
:1020E000D3F804902183E6D000273E464FF0040A3F
:1020F00082E721F00701236941F0050189B2052D2E
:10210000D3F808902183D6D000273E464FF0050A29
:1021100072E700273E464FF0060A6DE72B4687E739
:10212000B9F1000FD1D1EFF31188202383F3128886
:10213000BFF36F8F238B23F008032383258BEA06DD
:102140002ED525F01003238305F007056669218B42
:10215000002EBFF670AF00232768C4E9003321F0DA
:10216000070141F001012183218B01F0070AAA45F3
:102170004FF000097FF440AF002F9CD041F00801E0
:10218000218388F31188BFF36F8F002FC8D03D687B
:10219000394633465246204607F0B7FB2F46F4E750
:1021A000AB067FF51BAF25F02003238305F0070561
:1021B00000E700BF379900002DE9F7430F460646B8
:1021C0000821C06ADFF8509007F0B5FC3C68241A7B
:1021D00080463C6004EA0905AC4203D8002003B005
:1021E000BDE8F08308236A462146304607F039FCF3
:1021F0000028F4D16946304607F0A7FC40B1BDF88D
:102200000230BDF804203C6005EA090513441D4472
:10221000A4EB0804E0E700BF0000FFFF73B504462D
:102220000821C06A124E07F086FC4FF6FF72636801
:10223000ADF800208DF80620E268191833401344E9
:10224000181A002560606846ADF80210ADF8045019
:1022500007F068FC6946204607F037FD2046211D3F
:1022600007F038FC636828463340A36002B070BDB5
:102270000000FFFF2DE9F04704468AB000F1140783
:10228000384609F0BFF8A06A8368DB689847E062C7
:1022900050B98D4A8D48012107F029FC6FF01505D2
:1022A00028460AB0BDE8F087A06A8368DB689847D3
:1022B0000368013B1F2B01D9854AEBE7E368B3F5BF
:1022C000803F08D94FF4803200928048814A012132
:1022D00007F0B2FEE2E7A06A216807AA08F09BF9BE
:1022E00008B17D4AD6E7E5682DB1089BB5FBF3F24E
:1022F00003FB12550DB1794ACCE7238A012B01D893
:10230000774AC7E7E36A029593F805904FF0FF33E9
:102310004FF0FF32384604F065FFE06A082107F00D
:102320000AFCA8460646238A1FFA85FA534508D8B0
:10233000238A434523D1384604F0CCFF6FF02C05A7
:10234000AEE7E1682B04891B13FA81F14A460823A2
:102350002046029107F093FB78B102A9204607F0CE
:10236000B9FB08F10108029908234A4620461FFAE2
:1023700088F807F084FB0028DAD00135D3E79A45C6
:102380000BD1029908234A46891B204607F077FBA8
:1023900018B902A9204607F09DFB02A92046FFF7C5
:1023A0000BFF054618B1384604F094FF78E7029B0E
:1023B00063604FEA13484FEA0848C4F80880D4E93C
:1023C000011399420FD3082303AA204607F049FBC3
:1023D00005460028E7D103AB13F8012B91453DD109
:1023E0000135082DF8D163681B0C1B0402A9204697
:1023F000029307F06FFBE36802994A46204607F014
:102400003EFB051ECFDB63687ED006EB03084FF66C
:10241000FF79E368CDF808801FFA88F29B1B9A4287
:1024200038D3304A2948032107F061FB6168204610
:1024300007F05FFB05460028B5D163682A4AE168CA
:1024400013400B44A3EB460363601340A360204694
:1024500007F063FC0546002D72D0A4E703A92046CF
:1024600007F073FB626810B9921B6260A7E7BDF8C2
:102470001050BDF80E10E06AC4F80880294407F037
:102480005AFB40449042A060EED1002DECD06FF09A
:102490001C0580E0082305AA4146204607F0E1FA22
:1024A000054600287FF47FAF05A9204607F04DFBC5
:1024B00038B1BDF814304B4503D1BDF81830002BAE
:1024C0006FD0B044A5E700BFA4D1000040BE00001B
:1024D000C6D10000E3D100000CD2000024D20000DD
:1024E00038D20000AAD200000000FFFF5B1A4A4663
:1024F000204607F0C4FA051EFFF655AF08D0E26A81
:10250000A36812681344A360D4E901318B42EDD86B
:102510006168E36801EB46029A429CD1DFF8A8802B
:10252000A26801EA08039A4295D0204607F0E1FA32
:10253000054600287FF437AF636803EA0803A36009
:10254000E368A288A3EB46039A4220D0384604F001
:10255000C1FE0123A374E268238A1C480092032170
:102560001B4A07F069FD63689AB200921748194A3E
:102570001B0C032107F060FDA3689AB20092134878
:10258000154A1B0C032107F057FD002588E620465D
:1025900007F0ACFB0546384604F09CFE002DD8D071
:1025A0007EE60E4A0948032107F0A1FA63681B0C76
:1025B0001B0402A92046029307F08CFA02992046D8
:1025C00007F097FA46E700BF0000FFFF40BE00009B
:1025D0005BD2000072D2000084D2000095D20000CD
:1025E0002DE9F04F1D4691B0837C02910446009284
:1025F00053B9644A6448012107F079FA6FF00C0678
:10260000304611B0BDE8F08FC26A0821104607F0CD
:1026100092FA29460190104607F08DFAE368019A74
:10262000A3EB8203AB420746C0F0A9801DB1009B1B
:10263000002B00F0A4806368059306AA05A9204634
:10264000DDF814A007F0BEFA06460028D8D1BDF880
:102650001830029A934206D06268059B9A42ECD1E8
:10266000002D36D1CCE706A9204607F06EFA0028E7
:10267000F2D0BDF81A80BDF81C3045B39D4228D178
:10268000E36ADDF800B01B684FEA1A4A5B424FEA82
:102690000A4A03F02003D0440393AA46DDF80C90C5
:1026A000D14528BFD1464B4608AA4146204607F0EF
:1026B000D8F900284AD14A4608A9584609F078F8BE
:1026C00038B9BAEB090AC844CB44E7D198E7002BE4
:1026D00096D0002F3DD1B84604F1140A4FF0FF32D6
:1026E0004FF0FF33504604F07DFD238A9E4243D0D5
:1026F000A168626808EB01039A422FD3029BADF8F0
:102700002030FF238DF82630009AADF822102B469A
:102710002046ADF8245007F09FFA29460746E06AA4
:1027200007F009FAA3680344A36057B908A807F0A3
:10273000F9F908A9204607F0C8FA002814BF07468F
:102740002F46504604F0C6FD3E4659E7C1DC06461A
:1027500056E7019B1F441FFA87F8BDE72046FFF7A5
:102760005DFD07460028ECD1204607F0D6FA074663
:102770000028E6D10136B8E76FF01B07E1E76FF0FC
:1027800015063DE790D1000040BE00002DE9FF474F
:102790001E46837CBDF8309004460F4690464BB9E8
:1027A0002C482D4A012107F0A2F96FF00C0004B06B
:1027B000BDE8F087C06A082107F0BDF9E368A3EB24
:1027C0004003B34243D3D4F804A0CDF804A00025BD
:1027D0004D455146DDF804A009D9636853451ED123
:1027E000BDF80830BB421AD06FF00100DFE702AA43
:1027F00001A9204607F0E6F90028D8D1BDF8083035
:10280000BB4206D102A9204607F09FF908B1013565
:10281000ADB26268019B9A42DAD15146E0E7BDF859
:102820000C30002BE0D0A945DED8BDF80A00090C19
:10283000B3424FEA014128BF334601444246204695
:1028400007F00FF90028B2D1BDF80C00AFE76FF028
:102850001500ACE740BE000090D100002DE9F04724
:10286000DFF85880044607464FF0010914B938468E
:10287000BDE8F08794FAA4F5B5FA85F509FA05F3F1
:102880002E0108EB05156FEA030A24EA03042B7BEB
:10289000002BEBD058F806301B694BB94644042294
:1028A00073682846196807EA0A0707F042FBDDE764
:1028B000284698470028D9D1F0E700BFB8BE0000ED
:1028C00030B51049104889B0002208F00DFF0F4DB7
:1028D0000F4900220023CDE9062300240E23CDE971
:1028E0000334CDE901440B4B00944FF44072284669
:1028F00004F02EFF0849284608F0D2FD204609B012
:1029000030BD00BF1D290000100C002088070020EA
:1029100040200020492C0000D8D20000014804F0DB
:1029200029BD00BF740700202DE9F04780462148EB
:102930000F4607F0DEFA0646002833D00025284669
:10294000BDE8F087237B83B12368DB680BB12046A9
:102950009847636883F8069023681B69D3B9636856
:1029600004221968204607F0E4FA01361034544571
:10297000E8D3B8F1000FE2D0002DDFD02846FFF7F2
:102980006DFF0546002FF7D000214FF4A47008F02A
:102990001DFEF1E7204698470028E0D009FA06F32B
:1029A0001D43E2E7044CDFF814A005464FF001098F
:1029B000DDE700BFC40E0020B8BE0000D8BE000096
:1029C000014B53F82000704778BF000008B503465C
:1029D00008462BB1044A136000F07AFC002008BDC1
:1029E0006FF01500FBE700BFE004002010B5044CB9
:1029F000237813B9034804F0BDFC0123237010BDF4
:102A0000C51F00207407002010B504460B4807F0CE
:102A100070FA5CB1BFF35B8F094B53E8001F0139BB
:102A200043E80012002AF8D1BFF35B8F054808F095
:102A300067FE0548BDE8104004F09CBCBC0E0020B9
:102A4000C00E0020100C0020740700200020064B50
:102A5000BFF35B8F014653E8000F43E80012002AE2
:102A6000F9D1BFF35B8F7047BC0E002070B5FFF744
:102A7000EDFF084C084E0546B44200D370BD6368B4
:102A80005B792BB123685B6813B1294620469847D0
:102A90001034F1E7B8BE0000D8BE000010B5044CF9
:102AA0000449204606F09EFD034B1C6010BD00BF8C
:102AB000C006002064BF0000B40E00200D4A0E487E
:102AC000002310B513700D4A13600D4A4FF40041F6
:102AD0001360FFF77BFFFFF7E1FF0A4B0A49184637
:102AE0008B4200D310BD1A1A5C6812110132227198
:102AF0001033F5E7C61F0020EF9E0000BC0E00203B
:102B0000C00E0020B8BE0000D8BE00000146002262
:102B10000148002306F087BDC0060020014806F0EA
:102B200020BE00BFC0060020024B0146186806F018
:102B30006CBE00BFB40E0020014806F0A1BE00BF6D
:102B4000C006002070B5294B187800284DD0FFF73B
:102B5000E5FF0546002845D1254B264C1B68002B78
:102B600019DD08F0BFFD4FF47A72A0FB020302FBEF
:102B70000131C30BD4E9002043EA41439B1A4FEAD9
:102B8000D13140F2E93261EB0001934271F1000171
:102B900001D3FFF76BFFD4E9003213F57A7342F1EA
:102BA0000002C4E90032BDE87040FFF7C5BF6368AA
:102BB0005B7923B1236829461B6820469847103467
:102BC000B442F4D32846FFF7AFFFBFF35B8F0A4B45
:102BD00053E8001F013943E80012002AF8D1BFF37F
:102BE0005B8FB9E7054C064EEAE770BDC51F0020B4
:102BF000BC0E0020080C0020C00E0020B8BE000053
:102C0000D8BE000070B50D4D297861B90120FFF7DD
:102C10008BFE0B4C0B4EB44206D3FFF793FF0028FC
:102C2000FBD101232B7070BD63685B791BB12368F6
:102C300020469B6898471034EDE700BFC61F002070
:102C4000B8BE0000D8BE000000212DE9F0470846BC
:102C5000FFF76AFE044658B340F267684FF0000978
:102C600008F0FEFE1B4B1C4A1B58136033B11B4B74
:102C70001B68092B02DD1A4804F07CFB194FDFF8B2
:102C800060A0002544B12046FFF7E8FD044618B9CE
:102C90004FF0FF384FF0FF39FFF754FF064628B9D1
:102CA000B5B942464B46504604F098FB3546E9E735
:102CB0004FF0FF384FF0FF39D2E72B689B691BB10B
:102CC00000221146284698471035BD42F5D3E8E763
:102CD000054DFAE708000000B80E0020C00E0020E5
:102CE00074070020D8BE0000B8BE000013B5184815
:102CF00007F0FFF8174B1B7873B1EFF31184202313
:102D000083F31288BFF36F8FFFF71CFF84F31188E2
:102D1000BFF36F8F02B010BD0F4B1B68002BF9D0B3
:102D200050B900220023CDE900230C484FF40042A3
:102D3000002305F0CDFAEDE70928EBD1074808F0AC
:102D4000DFFC074802B0BDE8104004F013BB00BF31
:102D5000C00E0020C61F0020B80E0020100C00205E
:102D60007407002010B5064B1B680446984721469F
:102D7000A060044806F0D6FCBDE81040FFF7B6BFDF
:102D8000E0040020C0060020044A054B9B1AB1EB6A
:102D9000D30F34BF52F831000020704720BE00002E
:102DA000B8BE00002DE9F04F8FB004AFC1F34A2840
:102DB000B8600D4691467B600C0DB8F1000F63D0F2
:102DC000002607F114034FF0040B4FF00A0AC7F86E
:102DD0000C80C7E907667E620193CDF808B0CDF894
:102DE00000A007F11C03F96832464846FEF7D0FE02
:102DF000B0F5006F03461CD36C468AB0D9F80410B6
:102E000004AB2648C3E9050140F2FF71D9611A46B7
:102E10004FF400711984224B42F8103F2148334689
:102E20004FF41251FFF7BEFFA5462C37BD46BDE853
:102E3000F08FC0F30A0804F11700184420F00700CF
:102E400080083B60FFF762FE68F35325044690B1AB
:102E50003B68154AC7E9083600F1100107F1140371
:102E6000F961CDE900A3CDF808B0F96807F11C03BA
:102E70004846FEF78DFE68F353257B68B9682A46FD
:102E8000204607F076F8D0E704F1170020F007009D
:102E90008008FFF73BFE0446EDE700BFEDD20000DF
:102EA0000400000150BE0000459F00002DE9F04FD6
:102EB00087B0DDE91279DDE9105A044603919346A3
:102EC0009846BFB1CDF800903B46524610210020F5
:102ED000CDF81490FEF78AFCB0F5006F06460AD3D1
:102EE000184A194840F2FF73022107B0BDE8F04FBD
:102EF00007F098B83E4605F11700304420F007006F
:102F000004F007048008FFF701FE0BF0070BE40054
:102F100044EA8B1444EA462444EA0554054640B189
:102F20003FB1CDF800903B46524631461030FEF797
:102F30005DFC039943462246284607B0BDE8F04FA2
:102F400007F017B82CD3000050BE0000406820B135
:102F5000034BC01A40F3CF0070474FF0FF3070476B
:102F600020BE00000EB403B503AB014653F8042B9A
:102F70000448019301F0C8FB02B05DF804EB03B014
:102F8000704700BF87A00000CA0605D48B064CBF5F
:102F900002490349FFF7E6BF704700BFD7CA0000E8
:102FA000D6CA00002DE9F04F89B09B46149B0693CA
:102FB0009DF84CA0159B0593169B179E0493044601
:102FC0000D469046BAF1000F00F09D8006F4807324
:102FD000079306F0ACFF06F00209024600283ED037
:102FE00091492046FFF7BEFF0746B9F1000F08D010
:102FF00016F0440F35D18D492A462046FFF7B2FF1F
:10300000074406F0010353B1894B8A4953F82A203B
:10301000894B2046002A08BF1A46FFF7A3FF06F493
:103020008073002B49D006F00803002B63D1B8F160
:10303000000F66D0814942462046FFF793FF0546C0
:10304000069B3D44002B6DD1049B002B73D1F307ED
:1030500000F1E48031462046FFF796FFD8E00746AE
:10306000C3E7774B18680028CAD0764B4FF47A79BB
:103070001B68B5FBF3F54FF46163B5FBF0F100FBA2
:10308000115509FB05F54FF03C0CB1FBF3F203FBC6
:103090001211B5FBF0FEB1FBFCF300FB1E550CFB5F
:1030A000131109FB05F50091B5FBF0F56649CDE973
:1030B00001E52046FFF756FFA2E706F00803EBB153
:1030C000624B634953F82A202046FFF74BFF054621
:1030D000B8F1000F05D0594942462046FFF742FF9C
:1030E0000544BBF1000FABD05A495A462046FFF7C2
:1030F00039FF0544A4E74FF0000BE1E706F00805AF
:10310000E6E745469CE7BBF1010F069B06D1002B85
:1031100064D1049B002B7BD000250CE0002BF8D061
:103120004D485CE04D48069B4D49224606F0F2F8BA
:10313000049B002B68D0DFF82C81DFF82C91049FD2
:103140003146102F204628BF1027FFF71DFF4FF0F4
:10315000000B5D4545DC059B49461A782046FFF784
:1031600001FF4FF0010B1BF0070F03D14146204632
:10317000FFF7F8FE5F453BD9059B494613F80B2046
:103180002046FFF7EFFE0BF1010BBBF1100FEAD168
:10319000364920464FF0000BFFF7E4FE5A46059BE8
:1031A0009A5CA2F120015F2928BF2E2230492046D7
:1031B000FFF7D8FE0BF1010BBBF1100F1DD01BF078
:1031C000070F03D141462046FFF7CCFE5F455A4624
:1031D000E5D841462046FFF7C5FEEBE71F485546B8
:1031E000A1E741462046FFF7BDFE0BF1010BB0E71A
:1031F00020492046FFF7B6FEC5E7059B3B440593F3
:10320000049BDB1B04939AD1BAF1000F7FF41FAF2C
:10321000204609B0BDE8F04F06F028BF064A054930
:103220002046FFF79FFE15E769D300006DD300002D
:1032300088BF00008DCB000064D3000092D3000053
:10324000CC0E0020C80E002076D300009CBF0000EA
:1032500096D300009CD30000BDA0000087A0000012
:1032600009470000A9D30000A1D30000ABD30000A0
:10327000ADD30000A7D3000073B542F20F738B42A9
:1032800028BF0B4605680F4A04460521684605F02D
:1032900075FA63680C495B6806460B22284606F0FF
:1032A000D7FE63683246694628465B6806F0D0FE62
:1032B000636806495B681B22284606F0C9FE02B017
:1032C00070BD00BFB6D00000CCD30000B0D300006A
:1032D000074A00210123904206D8064A01B901237A
:1032E0001360054B1860704740085B000121F2E74E
:1032F00040420F00C80E0020CC0E0020014B0122DE
:103300001A707047C71F0020014B002019607047DA
:10331000E40E00200148FFF7AFBF00BFCCBF0000A4
:1033200010B5064B18680C46FFF74AFB21460346CA
:10333000BDE8104002480F22184700BFE40E0020ED
:10334000CCBF0000F8B5094D094B0A4ED5E900473E
:1033500001221A700CB92C60F8BD214630463A465D
:1033600000F01EF8241A0644F4E700BFD80E00202F
:10337000C81F0020C91F002010B9074B18707047E4
:10338000064B1B781BB141F2883007F09ABFA4208E
:10339000002108F01BB900BFC71F0020C81F002074
:1033A0002DE9F047DFF878901E4F80460E46042442
:1033B00099F80050A5B907F077FF3246824641469A
:1033C000284603F0CFFC0546504607F075FFE5B1EF
:1033D00001233B7099F8003073B93046BDE8F0879F
:1033E00032464146002003F0BDFC0546EFE720468B
:1033F000FFF7C2FF651E2C46002003F0F7FC0028F3
:10340000EBD03B78002BF2D1E7E73B78002BE4D000
:10341000013C2046FFF7B0FF3B78002BC8D1DCE72A
:10342000C81F0020C71F0020F8B5074F0D460446EF
:103430004618B44201D12846F8BD14F8011BBB68F8
:1034400001485B689847F4E76CBB0000014B0360E0
:103450000020704710C0000070B5104B1C680D466E
:10346000B4B10F4B196800238B4202DB6FF00100EF
:1034700070BD224612F8106B864202D0013314460A
:10348000F2E7E06807F039FF28B12C600020EFE791
:103490006FF00C00ECE76FF01200E9E7EC0400209D
:1034A00010C0000010B588B0436802938368C068FC
:1034B000CDE903320A680023CDE906230C4601AAB0
:1034C0000449059307F0ABF8079808B9059B2360FA
:1034D00008B010BDB7A100002DE9F0410C4B1C68ED
:1034E00005460E4617467CB100F054F96368204645
:1034F000D3F8108032463B462946C047044600F0C8
:1035000053F92046BDE8F0816FF00104F9E700BFF0
:103510000C0F002000230360044B5A6812B9C3E962
:103520000000704710605860704700BF100F002007
:10353000014B1860704700BF0C0F002030B585B0FC
:103540000023CDE902330546019000F023F9094B31
:103550001C6844B9284600F0BDF8044600F024F980
:10356000204605B030BD636820461B6801A9984716
:103570002468EEE7100F0020024B0022C3E900226E
:10358000704700BF100F0020024B0022C3E9002249
:10359000FFF7F2BF180F00202DE9F74307460C464E
:1035A00009B100230B601F4DDFF87C9000264D45CC
:1035B0000FD31E4B1D6885B355F8188C01AA4146E0
:1035C0003846183D06F032FE10B3D6B914BB2E466D
:1035D0001EE0D5F8008001AA4146384606F026FED6
:1035E00050B116B954B92E4606E031680022404663
:1035F00006F01CFE0028F5D11835D8E7019B2360A2
:10360000F1E731680022404606F010FE0028DDD1C7
:10361000AD69D0E7019B2360D9E7304603B0BDE830
:10362000F08300BFD8BE0000F0BE0000180F0020DD
:103630002DE9F04784B002AF0446D7F828907860AF
:103640000D4616469846B9F1000F07D0D9F800107C
:1036500031BBD9F804A0BAF1000F28D1391D20469A
:10366000FFF79AFF08B3D0F80C90786843463246CB
:103670002946C847C8B16D468AB002AA124BD0612C
:10368000C2E905344FF400731384104B42F8103F25
:103690000F4800234FF41151FFF784FBAD4604E0BF
:1036A0003A1D06F0C3FD0028D3D1002007E0D9F869
:1036B000083000937868434632462946D047083799
:1036C000BD46BDE8F08700BF22D400000400000121
:1036D00098BE00002DE9F047DFF8AC90DFF8ACA011
:1036E00080464FF000470026294C3D464C450DD3FF
:1036F000DAF80040002C42D0183CB8F1000F25D178
:1037000022695ABBA469F5E72F46EDE7B8F1000F2F
:1037100003D122694AB91834E8E7206800224146FB
:1037200006F084FD0028F4D1F5E76368BB4205DDAF
:10373000AF4209D09D42A8BF1D46ECE7EBD19047B0
:10374000002E08BF0646E6E71D46E4E72068002293
:10375000414606F06BFD0028D2D1D3E76368BB4237
:1037600005DDBD4209D09D42A8BF1D46CAE7C9D1AB
:103770009047002E08BF0646C4E71D46C2E7AF4289
:10378000C2D13046BDE8F087F0BE0000180F00201F
:10379000D8BE000003484FF0FF324FF0FF3303F074
:1037A00021BD00BF4C070020014803F093BD00BFBE
:1037B0004C07002038B5094DFFF7ECFF2B783BB9DB
:1037C000FFF7E2FE00F06AF8044610B901232B70FF
:1037D0000024FFF7E9FF204638BD00BFDA1F0020B4
:1037E0002DE9F047048FDFF8B0A0013498B0064609
:1037F0008946A4B200F10807651EADB2B5F5004FC9
:1038000047D04A2305AA2946384606F057FB04F557
:103810007F543F34A4B28046214601230DF10B02B0
:10382000384606F04BFBB8F1000F014610DC0028CB
:1038300010DC338FAB4209D132466B1E22F8383F81
:103840004FF4004102233846FEF7CAFE2C46D3E768
:10385000002808DC2946384606F02CFB214638466D
:1038600006F028FBE5E708F160030DEB03080023F1
:1038700008F84C3C5246CDF8009003AB05A80397DE
:10388000ADF81040FFF7D4FE0028DFD018B0BDE837
:10389000F0870020FAE700BF79A200007FB501237E
:1038A000694603200193FFF7D7FD044660BB02AAD7
:1038B00001A9032006F0A1FC044610B110F10C0F81
:1038C00022D10399B1F5803F23D2009A0023946856
:1038D0001846084484421AD30133082BF9D10E4DFF
:1038E00069612B835368AB602846D368EB6306F0AD
:1038F0005BFD044640B9094E6E602846FFF70AFE9C
:1039000028466E60FFF714FE204604B070BD9BB2DF
:10391000E5E76FF02004F7E7200F0020F004002017
:1039200008B5044805F04EFDBDE80840024805F022
:1039300049BD00BF56D400008BD40000014804F0FC
:1039400075BD00BF54C0000038B5044618B90F4B10
:103950000F485B6898476168B1F5683F10D0B1F5D2
:10396000680F0DD00B4DA9420AD011F46861206890
:1039700007D00146084807F0FBFC00232360656080
:1039800038BD142207F008FFF9E700BF50060020F9
:10399000B9D400002C5F5CA96014002008B520B3E6
:1039A0004368B3F5683F10D101220368BFF35B8F12
:1039B00053E8001F002903D143E800200028F7D175
:1039C000BFF35B8F0DD1002008BD094A93420AD096
:1039D00000684FF0FF324FF0FF3303F003FC002884
:1039E000F1D00448F0E70448EEE76FF4E040EBE77D
:1039F0002C5F5CA9E98FFFFFEA8FFFFF08B5D8B104
:103A00004368B3F5683F10D100220368BFF35B8FB2
:103A100053E8001F012903D143E800200028F7D113
:103A2000BFF35B8F0BD1002008BD074A934208D03B
:103A3000006803F04FFCF6E76FF4E040F4E703485A
:103A4000F2E70348F0E700BF2C5F5CA9E98FFFFFB6
:103A5000EA8FFFFF10B5044618B91D4B1D485B687F
:103A600098476368B3F5683F2FD0B3F5680F2CD043
:103A7000194A934219D1236803BB18484FF0FF320B
:103A80004FF0FF33214603F07FFB08B923681BB9D1
:103A90000F4B13485B68984720681422002107F0F9
:103AA0007BFE4FF46863636008E0B3F5683F0DD8B0
:103AB0003A2B03D040F6BA629342DED1206807F079
:103AC000A1FC636843F03A03636010BD054AF3E765
:103AD00050060020B9D400002C5F5CA960140020BF
:103AE000DFD400003A00003A08B5064906484023F2
:103AF000142207F02FFCBDE808400449044804F0F4
:103B000007BD00BF600F0020601400205CC00000F3
:103B100070C0000008B50348034A0021121A06F0DD
:103B200079FC08BD88070020242000200748084AA7
:103B3000084908B5121A06F06FFC0748074A0849F9
:103B4000BDE80840121A06F067BC00BFC0040020A0
:103B50008407002088DD0000B8040020C004002095
:103B600080DD00002DE9F047064600AF0C46002935
:103B700036D0E9468AB0D1E90012A3686D462148E3
:103B8000A8464FF0050AC5E90501C5E9072348F82D
:103B900010AF1D48424600234FF42151FFF702F9B0
:103BA000CD46D4E903126369AD461848C5F810A0A4
:103BB000C5E90501C5E907231348002342464FF430
:103BC0002151FFF7EFF8CD46E369114A0E48012174
:103BD00006F028FAA3690F4A0B48012106F022FAE1
:103BE000012E07D1EFF305830B4A0748103B3146FE
:103BF00006F018FA2146304603F028F9BD46BDE824
:103C0000F08700BF0CD5000080BE00003BD500004F
:103C10006AD5000079D50000A7D5000030BFFFF7B6
:103C2000FDBF00BF2DE9F0410B4EDFF8308006EB01
:103C30000807CC1B054632460949204607F084FD9B
:103C4000A01942460021083C07F0A6FD2C6707F1A9
:103C50000800BDE8F08100BF00000000080000007F
:103C6000F0BE0000054B5A699B689A421FBF044A88
:103C7000536843F080535360704700BFA015002085
:103C800000ED00E070B5294C06460D46284829494C
:103C900006F0CFFBA36AD9043CD52548264906F097
:103CA000C8FB1720A36A1A0504D52148234906F04A
:103CB000C0FB18201D4CA36A9B0512D51C48204947
:103CC00006F0B7FBA36BA26A100409D51D4A184879
:103CD000012106F0A7F91EB1A36A23F40043A362F1
:103CE0001920124CA36A590504D51148164906F04B
:103CF000A0FB1A20A36ADA050ED50D48134906F079
:103D000098FB1B20094A936A43F47F439362002384
:103D10002B7070BD1620C5E7A36A9B04F2D504483A
:103D20000B4906F086FB1C20ECE700BF00ED00E02D
:103D300080BE0000BAD50000D0D50000E1D500005B
:103D4000F4D500000DD6000022D600003DD60000BC
:103D500055D6000010B5204C2049214806F069FBDB
:103D6000A36A990136D51E481E4906F062FB1E2043
:103D7000A36ADA0104D51A481B4906F05AFB1F2032
:103D8000154CA36A1B0304D51548184906F051FBCE
:103D90002120A36A590304D51148154906F049FBAF
:103DA00022200D4CA36A9A0304D50D48114906F050
:103DB00040FB2320A36ADB0304D509480E4906F023
:103DC00038FB2420044A936A6FEA03436FEA1343E3
:103DD000936210BD1D20CBE700ED00E084D600000B
:103DE00080BE00009CD60000AFD60000C9D60000FF
:103DF000E7D600000CD7000026D700002DE9F843D5
:103E0000364D8046894636483649174606F011FB3E
:103E1000AB6ADE0627D53449314806F00AFB112487
:103E2000AB6A1D0704D531492D4806F002FB122468
:103E30002A4DAB6A980718D52D49294806F0F9FA9A
:103E40006E6BAB6A190646D52A4A254833460121CE
:103E500006F0E8F8B9F1000F03D0AB6A23F0800355
:103E6000AB62132403E01024DAE76FF015061B4D54
:103E7000AB6ADA0704D52049194806F0DAFA1424A7
:103E8000AB6A9B0604D51D49154806F0D2FA1524E5
:103E9000124B9A6AD50602D49A6A90070AD55B68D3
:103EA000190507D54146304600F062FA10B180F39B
:103EB00009880224094B9A6A920642BF5A6A22F480
:103EC00000525A629A6A42F0FF029A6200233B70E3
:103ED0002046BDE8F8836FF01506C2E700ED00E06C
:103EE00080BE000051D7000067D70000E1D5000078
:103EF0009AD70000B2D70000C8D7000055D60000FE
:103F00002DE9F041664B8AB0D3F8048000AF044637
:103F1000C8F30805002686F31188BFF36F8F02F0FF
:103F20007F43B3F17F4F07D102F00C03082B12D16E
:103F30005C495D4806F07DFA002634460023FB719B
:103F4000EB1E092B00F28A80DFE803F00A80837CF5
:103F500088888888888610074CBF0C460126EDE7C4
:103F6000524951484E4D06F064FA0023FB71EB6A4A
:103F70009A0705D54E494C4806F05BFA002332E01B
:103F8000EB6A002B01DA4B49F5E7EB6A5B00F5D5EC
:103F90004949454806F04DFA6B69A26943F48073BC
:103FA0006B61BFF34F8FBFF36F8F6B6932F8022CD9
:103FB00023F480736B61BFF34F8FBFF36F8F4DF6A8
:103FC00002739A4208D0AB6ADBB273B3FA1D0121C7
:103FD0002046FFF713FF37E02368384A32480121B3
:103FE00006F020F82368FA79DAB907F1080504F138
:103FF000200C206861682A4603C2083464451546CF
:10400000F7D17A6A002E45D0C2F3080121B96FEAD0
:1040100052226FEA42227A6207F108011846FFF73E
:10402000A1FD2837BD46BDE8F081AB6A13F47F4F90
:1040300004D0F91D0120FFF725FE05E0AB6AB3F5BA
:10404000803F9BD3FFF786FE0346CCE7FA1D002195
:10405000BEE7F91D0020EEE719498CE7194A1A4B13
:1040600018F4F87FE8468AB018BF13466A46174925
:10407000C2E905134FF400731384103D144BD5614E
:1040800042F8103F084800234FF41151FEF78AFE12
:10409000C54673E722F4FF7222F00102BBE700BFBE
:1040A00000ED00E015D8000080BE000040D8000000
:1040B00057D8000078D8000086D80000A5D80000A6
:1040C000C1D80000FCD70000E7D70000E5D8000009
:1040D00004000001044B5A6942F010025A615A6907
:1040E00022F008025A61704700ED00E0EFF308800B
:1040F000EFF3098101B57246FFF702FF01BD00BF72
:10410000002080F31488BFF36F8F0F4880F3088876
:1041100001F0D4FE00200D490860BFF34F8F00F07E
:104120002BF8202080F3118809484FF404614018CF
:1041300080F30988EFF314800221084380F3148888
:10414000BFF36F8F00F0E4F8403D002094ED00E0F5
:10415000802300200749D1F890200023C2F30722D2
:104160001846934200DB7047C1F89830C1F8A000B0
:104170000133F6E700ED00E008B572B6002383F3E3
:104180001388FFF7E7FF144B4FF0FF32C3F880208E
:10419000C3F88420C3F88820C3F88C20C3F890208B
:1041A000C3F89420C3F89820C3F89C20C3F880215A
:1041B000C3F88421C3F88821C3F88C21C3F8902167
:1041C000C3F89421C3F89821C3F89C2162B6BFF3C9
:1041D0004F8FBFF36F8F08BD00E100E0084B9B6875
:1041E00083420BD1EFF3058343B1064B5A6842F08B
:1041F00080525A605A6A22F400425A6203F072BD39
:10420000A015002000ED00E014498A684FF030004E
:104210001044EFF3098C80E8F01F202080F312880F
:10422000BFF36F8F0E4F4FF000664A698A603E60A1
:10423000106F0C4C2060506F0023536780F311887F
:1042400004B5104600F0F8F8BDE8044002F1300073
:1042500090E8F01F8CF3098870470000A01500203B
:1042600004ED00E07C1400201EF0040F0CBFEFF3FF
:104270000880EFF30980816911F8021C0229FFD040
:1042800001B5724606F0CAF801BD00BF40B2002871
:1042900007DB044A4109012300F01F00834042F874
:1042A0002130704700E100E0054B420900F01F009B
:1042B00053F82220012303FA00F01040704700BF9A
:1042C00000E100E040B20028A8BF00F1604001F129
:1042D0000101B8BF064B4FEA4111ACBF00F5614088
:1042E00000F00F00C9B2B4BF195480F80013704732
:1042F00014ED00E0044B054A23F07F039360BFF305
:104300004F8FBFF36F8F70470000000000ED00E09B
:1043100008B5FFF7EFFF074AD2F8883023F470039F
:10432000C2F88830FFF7F6FBFFF700FC00F05AF800
:1043300002F0B0FE00ED00E042F8203C009B42F8A5
:104340001C3C0A49019B42F8183C029B42F8143C71
:1043500021F001014FF0807342F8043C42F8081C40
:104360000023203A02654367704700BF691F0000C1
:10437000094A0346906870B113F1160F006E05D01C
:10438000A0F140029A4205D8834203D2814228BF5D
:104390000020704700207047A015002008B5154682
:1043A0000B4A0C4B9060026F1A600E4600F044F806
:1043B0002C4686F309880020034B984720460021AD
:1043C00000220023014C204749A40000691F00007F
:1043D000A01500207C140020014B10221A617047A8
:1043E00000ED00E0044800232021C2180133302BE7
:1043F00082F80013F9D1704700E100E008B5EFF34F
:104400000583064A103B02EBC30152F833004968AA
:104410008847BDE80840FFF725BC00BFECBB0000A3
:10442000024B034A0348012100F08AB8000004202F
:104430000000002080C00000026E054B403A1A6068
:10444000044A4021C3E901121846012100F082B854
:104450008014002000000B1508B503461048D0F862
:104460009020C2F30722013A934207D90D480E4A21
:10447000012105F0D7FD6FF0150008BDC0F8983098
:104480000A6822F01F021A4342F01002C0F89C2072
:104490008A6842F00102C0F8A0201846EDE700BF8C
:1044A00000ED00E078BE0000FCD80000F0B50E463C
:1044B00085B01F4604460025B5420DDA606810B38A
:1044C00097B1431E18420AD0104A11482B460121C9
:1044D00005F0A8FD6FF01502104605B0F0BD1F28CD
:1044E000F2D921680B42EFD12368019305F0CFFF89
:1044F000A36801A90343D0B20393FFF7ADFF10F106
:10450000160FE7D0421C01350C34D5E722D9000044
:1045100078BE0000044B0522C3F89420BFF34F8FF0
:10452000BFF36F8F704700BF00ED00E0BFF35F8FF8
:10453000024B0022C3F89420704700BF00ED00E05A
:1045400010B5034C01232278FFF7B0FF207010BD97
:10455000DB1F002008B50B4A00231278FFF7A6FFE7
:1045600010F1160F07D0084A0021D2F89030C3F39B
:104570000723984200DB08BDC2F89800C2F8A010DB
:104580000130F2E7DB1F002000ED00E02DE9F043F1
:1045900057485849D0F890300D68C3F307239D421F
:1045A00085B000F2A180FFF7C1FF49680022954263
:1045B00001F10C011AD1504C504F25706846FEF79E
:1045C00045FFDFF83C81DFF83C9106460025AE420E
:1045D0001FD1237846490020D1F89020C2F307224A
:1045E00093427BDBFFF796FF00204CE0C0F8982059
:1045F00051F80C3C23F01F03134343F01003C0F8A1
:104600009C3051F8043C43F00103C0F8A030013263
:10461000CDE7009800EB05114FEA051CCB683B4045
:10462000B3F5000F44D00AD8B3F5001F2ED0B3F570
:10463000800F34D0B3F5801F10D00135C7E7B3F138
:10464000807F3ED0B3F1007FF7D150F80C308868FE
:104650004A6805F01CFF40F4802009E050F80C3057
:1046600088684A6805F013FF40F0885040F4302015
:10467000039001A92078CDE90123FFF7EDFE002882
:1046800028DA6FF0150005B0BDE8F08350F80C3063
:1046900088684A6805F0FBFE40EA0800E8E750F841
:1046A0000C3088684A6805F0F2FE40EA0900DFE74E
:1046B00050F80C3088684A6805F0E9FE40F08270D6
:1046C000D6E750F80C3088684A6805F0E0FE40F004
:1046D0008870CDE7237801332370AEE7C1F89830B6
:1046E000C1F8A000013377E74FF0FF30CBE700BF00
:1046F00000ED00E08CC00000DB1F00200000F0FF98
:104700000000081100000202F0B587B007460E460F
:1047100014460021102268461D4607F03DF802238A
:104720008DF802302A46054B019321466846CDE9B3
:10473000047604F0E3F807B0F0BD00BFAFA40000BA
:1047400008B5024B1B689847002008BD8C14002058
:10475000034B044A1860937843F002039370704748
:104760008C1400202C05002008B50649064821F0CD
:104770000701C1F1005202F5802204F08EFD0020F5
:1047800008BD00BFC785002090140020024B012205
:10479000C3F840250020704700E0014048B1054BB8
:1047A000054A1B68B3FBF2F35843044B43F0010383
:1047B000184770473C06002040420F0020BF000011
:1047C00008B50448044A3F23C0E9002301F020FC57
:1047D000002008BD9C140020FFFF0F0010B5094CFD
:1047E0000A44914200D110BD11F8013B5840030921
:1047F0000001E35CC0B2434018091B01205CDBB23E
:104800005840EEE758D90000084B70B5C31A0D4662
:1048100007499B10044659430648402205F05BFEB9
:104820002B4601462046BDE870401847B8140020CA
:10483000B76DDBB60CBB000073B50C4C0C4A4023C3
:10484000041B00930D460B460A49A410614306461B
:10485000094805F06BFE011E05DA30462B4602B012
:10486000BDE87040184702B070BD00BFB81400200A
:1048700095A50000B76DDBB60CBB00000022F8B5B3
:10488000012105461046FFF71DFD104801F0E8FB29
:104890000446B8B901F004FC2F690D49384605F00B
:1048A00057F8031E09DB01263E642D69084905F10E
:1048B0001C0005F04DF8031E02DA1C462046F8BD28
:1048C000EE64FBE76FF00404F8E700BF014A000064
:1048D000ACC000001FB500220123CDE90223094A24
:1048E000CDF800D06B46CDF804D005F04CFE002882
:1048F00005DB4FF480420023684602F06FFD05B0EF
:104900005DF804FBA7A5000010B5EFF31184202388
:1049100083F31288BFF36F8F074A136823F00201F5
:10492000DB07116002D4012006F0A9F984F3118895
:10493000BFF36F8F10BD00BF0815002030B4104BBF
:104940000C2202FB003301460020D3E90E5298638B
:10495000EFF31180202484F31288BFF36F8F1C6C57
:1049600004F0C00444F002041C6480F31188BFF317
:104970006F8F1DB12B46034830BC184730BC7047C1
:10498000B81400200CBB000010B4EFF311822023F8
:1049900083F31288BFF36F8F1748016841F0020458
:1049A0000460C80707D482F31188BFF36F8F01201A
:1049B00010BC06F05CB94FF08041D1F80C04D1F87E
:1049C0000C14C907EFD5EFF3118083F31288BFF3FE
:1049D0006F8F0A490B6C03F0C00343F002030B64B2
:1049E00080F31188BFF36F8F82F31188BFF36F8F4D
:1049F000002010BCFFF7A2BF08150020B81400204B
:104A000010B1012804D07047034B1B6C5B0701D128
:104A1000FFF794BF704700BFB81400202DE9F041A4
:104A20003849BFF35B8F0746012251E8003F41E858
:104A300000200028F9D1BFF35B8F33B932493348E6
:104A40004B60CB608A6004F096FF7B1E012B2BD855
:104A5000012F07D14FF08043D3F81C3403F0030338
:104A6000012B21D006F016FD0546F8B9284B1B781E
:104A7000E3B14FF080430222C3F808230646DFF873
:104A800094804FF08044D4F81824D4F81834D2031A
:104A900015D503F00303012B01D0012F0FD155B31E
:104AA00086F31188BFF36F8FBDE8F081EFF31186B5
:104AB000202383F31288BFF36F8F0125DFE7ADB1A9
:104AC000304605F0D5FCD4F81835002BDBD1D4F8EE
:104AD0000421002AD7D0C4F80431D4F804310123CA
:104AE000C4F81835C8F88031A360CCE70021212034
:104AF00006F06CFDE7E74FF080430222C3F8042381
:104B0000D2E700BFB4140020A4140020D414002065
:104B10002120002000E100E008B5074806F0EDFB89
:104B200038B10648FFF714FE0448FDF717FA0020D5
:104B300008BD6FF01200FBE76CBB0000414B0000AA
:104B40000A2838B5074D044604D1AB680D215B68CF
:104B500028469847AB6803485B68E1B2984720460F
:104B600038BD00BF6CBB0000024B0B60012313601B
:104B7000704700BF5CC1000000487047D0C0000013
:104B80000268154BFF2A08BF4FF0FF32C3F82425F7
:104B90004268FF2A08BF4FF0FF32C3F82825826819
:104BA000FF2A08BF4FF0FF32C3F83025C268FF2A42
:104BB00008BF4FF0FF32C3F834250269FF2A08BF4F
:104BC0004FF0FF32C3F838254269FF2A08BF4FF083
:104BD000FF32C3F83C2570470090024030B50D46C7
:104BE000416885B069B1D1E900138468B4B1D4E9F2
:104BF0000024A4B19BB19C4205D06FF0150005B014
:104C000030BD0B46F1E75C1C092C03780AD90E4A2B
:104C10000E480094022105F00FFAEEE72246013318
:104C20001C44F1E78DF8083040F20113ADF80A306A
:104C300002A800238DF809408DF80C308DF80D5036
:104C400001F054FFDBE700BF91D9000088BE0000EF
:104C50002DE9F04F91B043685D6B00AF804607F1DE
:104C600028020021284605F002FE041E6FDBBB6A05
:104C70002A681979186800F063FD041E67DB0022BA
:104C800001212920FFF71EFBD8F80490D8F8102046
:104C90007749484601F00EFF041E53DB754D0FCDDA
:104CA00007F128040FC495E80300002307F1040A64
:104CB0007B6084E80300CAE90133AB233B716E4B90
:104CC000D3F82425D2B23A61D3F82825D2B27A613A
:104CD000D3F83025D2B2BA61D3F83425D2B2FA6112
:104CE000D3F83825D2B23A62D3F83C35DBB27B62D6
:104CF00007F12800FFF744FF012001F04BFF07F107
:104D0000100605463046FFF73BFF2DBB29465046AF
:104D1000FFF764FF041E15DB052006F0D2FA4FF002
:104D2000030B9F23C7E90A55C7F810A0C7F814B0B2
:104D300087F828303E63294607F12800FFF74EFF29
:104D4000041E0CDA01F042FF08B101F02FFF2046EB
:104D50004437BD46BDE8F08F6FF00404F2E75A46D1
:104D6000514609F1300006F023FD044618B36C46A5
:104D70008CB097F804E097F805C0BE7999F8300038
:104D800099F8311099F832306A46DFF8F080D36232
:104D90000823C2E9058EC2E907C6C2E9090142F843
:104DA000103F37482B4644F24001FDF7FBFFA54674
:104DB0006FF01204C6E7D8F80420537F023B012BA2
:104DC00016D992F81C80A8F10208B8F1020F8CBF26
:104DD0004FF000084FF0010805F091FC051E0ADABB
:104DE000284A27482B46012105F01CF92C46A9E743
:104DF0004FF00108F0E7EAB2C5F38015A845A1D04D
:104E00000023012182F04002BB623F6179613B6374
:104E100087F82810FE6207F128003B803A70FFF700
:104E2000DDFE041E07D105F06AFC041E04DB14F04D
:104E30000104F8D186E785DA134A144B6D468AB02F
:104E4000B8F1000F18BF13466A461149D461C2E990
:104E500005134FF4007313840E4B42F8103F0848BB
:104E600000234FF41151FDF79DFFAD466AE700BFE7
:104E700085A60000F0BE000000900240BED90000F0
:104E800088BE0000F0D90000B4D90000B8D90000F5
:104E900000DA0000040000012DE9F04F824687B0DF
:104EA0000E461C46904672B17BB10029426803DB76
:104EB000D26A0B4493420CD93E4A3F480094334691
:104EC000012105F0B9F86FF01504204607B0BDE8E0
:104ED000F08F754205F0030505F0FDFBA54228BFE4
:104EE0002546D8F1000303F0030308F0030758BF79
:104EF0005F427F4207F00307A74228BF2746631B94
:104F0000E41B24F0030423F00309A145C8BFA14614
:104F100003F0030BC8BFA3EB040BB9F1000F17D0CC
:104F200008EB0703494672191846039306F0B0F9D7
:104F300004460146DAF8100005F0AAFBA4BBBD4206
:104F400006D0039B4A46194608EB050006F00AFC0A
:104F50009DB1C5F104070421F21B04A806F098F9DD
:104F600004460146DAF8100005F092FBE4B904AB00
:104F70002A46D919404606F0E7FBBBF1000F17D0CF
:104F8000721908214A4404A806F082F90446014631
:104F9000DAF8100005F07CFB34B909EB05005A463D
:104FA00004A9404406F0D0FB504605F07AFB8CE79C
:104FB0005C46F9E711DA000088BE00002DE9F043F5
:104FC0000F4685B0416806461D4690462AB96FF0E7
:104FD0001504204605B0BDE8F083002BF7D0042B64
:104FE00001D9AB07F3D117F00304F0D1002F03DB95
:104FF000CA6A7B19934207D9324A334800953B4627
:10500000012105F019F8E2E7304605F064FB20467F
:1050100005F090FB044630B1012005F08BFB3046D3
:1050200005F03FFBD5E7032D1BD804213A4603A822
:1050300006F02EF904460146306905F029FB002CE4
:10504000EAD12A46414603A806F07EFB3A460421EF
:1050500003A806F01AF904460146306905F018FB6A
:1050600021E008F06043B3F1005F02D118F0030FB4
:1050700024D0042DA94628BF4FF004094A464146D2
:1050800003A806F061FB49463A4603A806F0FDF87E
:1050900004460146306905F0FBFA24B9B5EB090571
:1050A000C8444F44E5D1012005F044FB0546304695
:1050B00005F0F7FA002C08BF2C468AE73A46294645
:1050C0004046C6E75ADA000088BE00002DE9F743E3
:1050D0000B460E46D0F804C00746C1F30B01154637
:1050E0002AB96FF01504204603B0BDE8F083C2F37F
:1050F0000B0252EA0104F4D1002B04DBDCF82C1083
:105100005A198A4206D9374A37480095012104F0D6
:1051100093FFE6E705F0DFFA2046D7F8048005F0B4
:1051200009FB0446002858D1D8F82C30AB421ED1D8
:1051300006F0B1F8A94604463869214605F0A8FAF8
:10514000002C3CD14E44A5EB090500214FF4A4707E
:1051500006F03CFA05F0D3FA041E34DBE307F4D47E
:10516000002DE1D1012005F0E5FA044635E0B5F562
:10517000803F09D3B3B253B93146012001F030FD6D
:105180004FF480390446D7E7B5F5805F09D3C6F3FD
:105190000B0030B9314601F023FD4FF4805904462D
:1051A000CAE7124A104800953346012104F044FF33
:1051B00038696FF0150105F06BFA6FF015040C4AB1
:1051C0000095334602E00B4A00953346064801211C
:1051D00004F032FF012005F0ADFA384605F061FA1F
:1051E00081E700BFA4DA000088BE0000EEDA00000C
:1051F00029DB00000CDB0000024B0B600123136075
:10520000704700BF0C1500200048704764C10000C3
:1052100007B50346054A00910548012104F00CFF3B
:105220006FF0150003B05DF804FB00BF5DDB00000C
:1052300038BE000010B5012211460648064C06F0A3
:10524000E8F806F01EF8206006F017F8606000200D
:1052500010BD00BF141500200C1500204FF0804237
:10526000D2F81015D2F8103501F01E0123F01F03FB
:105270000B4343F00103C2F81035024B00221A70B1
:10528000704700BFDC1F00204FF08053D3F830314F
:10529000082B20D14FF08042D2F81015CB071AD539
:1052A000D2F8103501F01E0123F01F030B43C2F8A2
:1052B0001035D2F808315BB1D2F8103523F01F0356
:1052C0000B4343F00103C2F810356FF08B007047B9
:1052D000024B01221A700020704700BFDC1F002023
:1052E0002DE9F3410F46154605F0C7FF294606464E
:1052F000384605F03DFAB846002838D0B7FBF6F33B
:1053000006FB137323B9B5FBF6F406FB14544CB13A
:10531000194A00953B461948012104F08DFE6FF0B3
:1053200015041DE0AE421BD84FF0FF324FF0FF33A3
:105330001348144F02F052F805F09FFF0646FFF79E
:10534000A3FF044680B9404601F05CF93B780BB1FD
:10535000FFF784FFAD1BB044F1D1094802F00AF811
:10536000204602B0BDE8F0816FF08B04F5E7064AF5
:1053700000953B46CFE700BF7ADB000038BE000057
:1053800014150020DC1F00205DDB00002DE9F74331
:105390000E463046194617461C4605F0E9F960B935
:1053A000204A009433462048012104F045FE6FF066
:1053B0001504204603B0BDE8F08346EA040515F065
:1053C000030503D0194A00943346ECE7002CF0D0D3
:1053D0001748DFF860904FF0FF324FF0FF3301F0D5
:1053E000FDFF24F00304A54205EB060809D1124A8B
:1053F000D2F80034DB07FBD500240D4801F0BAFFDA
:10540000D7E7FFF741FF50B97959404601F016F947
:1054100099F800300BB1FFF721FF0435E3E76FF097
:105420008B04EAE75DDB000038BE000099DB00007A
:1054300014150020DC1F002000E00140F0B5456895
:105440001646A8682A7C01F01F0487B044EA42147B
:10545000002869D0B6F5001F04D1214605F005FFEC
:10546000002052E001AA0020B6F5800F01905060A4
:1054700037D1B3F1007F14BF052304238DF8043026
:105480000023CDE904230393EB6823FA01F111F023
:1054900001010DF103073AD1B6F1A07F37D104F035
:1054A0001F03620903F5E07326D0012A3FD1214A88
:1054B00052F82330DB072AD4A8683A46214605F083
:1054C0004AFE16301BD00297A86803AA214605F0B1
:1054D0000EFD002819DBA8680122214605F072FEA6
:1054E000BEE7B3F1C06F05D0B3F1007F14BF012355
:1054F0000223C3E70323C1E74FF0A042D8E7A8681F
:10550000394600F07FFF0028DDDA07B0F0BDA8685B
:105510003A46214605F01FFE0028D5D19DF803101C
:10552000A86800F069FFCFE76FF08500EDE751F85C
:105530002330FFDE00030050420970B5034602D05D
:10554000012A17D070BD0D4E326951680029F9D07B
:1055500003F01F0301250C689D400029F2D08A68E2
:105560002A4002D04B68304698472CB12368214628
:105570001C46F2E7024EE7E72346F8E74CBB000083
:105580002CBB000038B54568A86890B105F012FE44
:10559000014670B9A86805F0F1FD044658B9024605
:1055A0000649A86805F0D4FD224605210620FEF72D
:1055B00089FE002038BD6FF00400FBE7395500007C
:1055C0002DE9F043476840F20636D0063B7C87B0B1
:1055D00002EA060654BFC2F3401C4FF0030C01F070
:1055E0001F05B6F5837F144645EA43158DF803C0C1
:1055F00045D00DD8062E16D005D8A6B1022E40D023
:105600006FF0150038E0B6F5807FF9D101260AE089
:1056100040F20222964236D0B6F5407F35D0B6F53C
:10562000007FEDD102260123220303FA01F12ED5DA
:105630007B68C3F80815B86890BB05F01F036D09B7
:105640002BD0012D75D13D4A02EB830284F48033C7
:10565000D2F80017C3F30043C4F3404444EA4304C0
:1056600021F4E16144EA8C0421F0070144EA0623B5
:105670000B43C2F80037002007B0BDE8F0830726CF
:10568000D1E70426CFE70526CDE70326CBE7630362
:1056900044BF7B68C3F80C15CDE74FF0A042D3E7B9
:1056A0000DF10202294605F056FD14F4403F8046F4
:1056B0000CD1B868294605F083FDB8F1000FDAD1A6
:1056C0009DF80210B86800F097FED4E74FF000098B
:1056D00001ABCDE90199CDE90439CDF80C90B8685A
:1056E00003AA294605F003FC4845C4DB14F4003343
:1056F00014D084F480349DF803308DF80E30C4F358
:1057000000448DF80C608DF80D40B8684B4603AA34
:10571000294605F0A4FC0028CFDAACE7CDE9043334
:105720000DF103030393B86803AA294605F0DFFBD4
:10573000F1E703F5E07350F82330FFDE000300507B
:105740002DE9F04FDFF85CA1DFF85CE18946002627
:1057500040F2FF184FF0010BF3B2994502D8002038
:10576000BDE8F08F50F826406504C4F3C321C4F3AC
:10577000080300F186804D4D240E695C434508BF47
:105780004FF0FF33222C7FD8DFE804F012181E21DF
:105790007E7E7E7E7E7E7E244E7E7E7E7E7E7E7EB3
:1057A0007E7E7E7E7E7E7E7E7E51585B5E61640064
:1057B000C2F80C355C1C50D10136CDE7C2F8143567
:1057C0005C1CF9D0002454E0C2F80835F2E7C2F8B6
:1057D0001035F5E7C2F808350029F1D15F1CEBD090
:1057E00000242546062150F826C00CF40047002F5F
:1057F0001CBF0025012403F01F075B093ED0012BCD
:1058000049D1734603EB8703CCF3412C0902D3F84B
:10581000007741EA8C01294307EA0A0741EA44017B
:105820003943C3F80017C7E7C2F80C35D4E7C2F80C
:1058300024355D1CC0D000250124D4E7C2F82835EA
:10584000B8E7C2F83035F4E7C2F83435F1E7C2F80A
:105850003835EEE7C2F83C35ACE75C090BD0012CDB
:1058600015D1754603F01F040BFA04F4C5F808457A
:1058700001242546B7E74FF0A045F3E74FF0A043DA
:10588000C0E76FF015006BE76FF0850068E7002355
:10589000C3F80835FFDE07F5E077002353F827301B
:1058A000F8E700BFF0F8FCFF00030050F7DB000052
:1058B0002DE9F041044647680D4605F0EBFD4FF039
:1058C000200888B9264B1B7873B16426606805F000
:1058D00090F8F0B9012005F077F9013EF6D10021EA
:1058E000212005F073FEF0E7EFF31186314688F3CF
:1058F0001288BFF36F8F606805F07BF8A8B986F354
:105900001188BFF36F8FEFE786F31188BFF36F8FB6
:10591000E5E7EFF31186314688F31288BFF36F8F06
:10592000606805F066F80028EED0BB691D706368FA
:10593000BA691B680020C3F844250122C3F8482532
:10594000C3F82001D3F82041C3F85801D3F8580117
:105950009A6081F31188BFF36F8FBDE8F08100BFBB
:10596000212000202DE9F041446805460121E0682E
:1059700005F093F86B681A682369C2F82435617DD5
:10598000237D0B43A17D0B43C2F86C356F68D7E9CB
:10599000004313F0010346D0D5F8108004F10C0148
:1059A00008F10C0204F5907005F04BF9061E07DAB9
:1059B0002A4A2B48012104F02CFB3046BDE8F08137
:1059C00098F80C0000F038FB0823C4F80035BB69D8
:1059D000C4F844350023C4F848350123A360D4F843
:1059E0005831002BFBD00026C4F800656B683146A7
:1059F000D86805F052F86D6831462C68E86805F003
:105A00004CF80823C4F800352A7A52B9EB69C4F877
:105A100034350123C4F83835C4F81021D4F81021E6
:105A200023600026C9E70822C4F80025BA69C4F833
:105A30004425C4F848350123A360D4F82031002B55
:105A4000FBD00023C4F82031D4F820310123E360D7
:105A50004FF48073C4F80433C1E700BFFFDB0000DC
:105A6000B0BE000070B5012383400E4ABFF35B8FC8
:105A7000DC4352E8001F01EA040542E80056002E0C
:105A8000F7D1BFF35B8F4FF4803282400648C0F8F5
:105A90000823BFF35F8FBFF36F8F0B4214BF01204A
:105AA000002070BD401500200010014070B40E4968
:105AB000D1E90034D01AC31844F1000422F07F4623
:105AC000C1E90034A6F50013B3F5400F09D2074B26
:105AD0001B681A0A1B069C19054B42F10005C3E915
